{
  "_format": "hh-sol-artifact-1",
  "contractName": "blc",
  "sourceName": "contracts/blc.sol",
  "abi": [
    {
      "inputs": [
        {
          "internalType": "uint256",
          "name": "_roll",
          "type": "uint256"
        }
      ],
      "name": "addExample",
      "outputs": [],
      "stateMutability": "nonpayable",
      "type": "function"
    },
    {
      "inputs": [
        {
          "internalType": "uint256",
          "name": "",
          "type": "uint256"
        }
      ],
      "name": "examples",
      "outputs": [
        {
          "internalType": "uint256",
          "name": "id",
          "type": "uint256"
        },
        {
          "internalType": "address",
          "name": "stud",
          "type": "address"
        },
        {
          "internalType": "uint256",
          "name": "roll",
          "type": "uint256"
        },
        {
          "internalType": "uint256",
          "name": "timeStamp",
          "type": "uint256"
        }
      ],
      "stateMutability": "view",
      "type": "function"
    },
    {
      "inputs": [],
      "name": "showExamples",
      "outputs": [
        {
          "components": [
            {
              "internalType": "uint256",
              "name": "id",
              "type": "uint256"
            },
            {
              "internalType": "address",
              "name": "stud",
              "type": "address"
            },
            {
              "internalType": "uint256",
              "name": "roll",
              "type": "uint256"
            },
            {
              "internalType": "uint256",
              "name": "timeStamp",
              "type": "uint256"
            }
          ],
          "internalType": "struct blc.Example[]",
          "name": "",
          "type": "tuple[]"
        }
      ],
      "stateMutability": "view",
      "type": "function"
    }
  ],
  "bytecode": "0x6080604052600060015534801561001557600080fd5b506105ba806100256000396000f3fe608060405234801561001057600080fd5b50600436106100415760003560e01c80635a940c7f146100465780639ae1f60414610062578063ce4cd02814610095575b600080fd5b610060600480360381019061005b9190610307565b6100b3565b005b61007c60048036038101906100779190610307565b610199565b60405161008c9493929190610384565b60405180910390f35b61009d6101f9565b6040516100aa91906104eb565b60405180910390f35b6000604051806080016040528060015481526020013373ffffffffffffffffffffffffffffffffffffffff1681526020018381526020014281525090806001815401808255809150506001900390600052602060002090600402016000909190919091506000820151816000015560208201518160010160006101000a81548173ffffffffffffffffffffffffffffffffffffffff021916908373ffffffffffffffffffffffffffffffffffffffff16021790555060408201518160020155606082015181600301555050600160008154809291906101919061053c565b919050555050565b600081815481106101a957600080fd5b90600052602060002090600402016000915090508060000154908060010160009054906101000a900473ffffffffffffffffffffffffffffffffffffffff16908060020154908060030154905084565b60606000805480602002602001604051908101604052809291908181526020016000905b828210156102c35783829060005260206000209060040201604051806080016040529081600082015481526020016001820160009054906101000a900473ffffffffffffffffffffffffffffffffffffffff1673ffffffffffffffffffffffffffffffffffffffff1673ffffffffffffffffffffffffffffffffffffffff168152602001600282015481526020016003820154815250508152602001906001019061021d565b50505050905090565b600080fd5b6000819050919050565b6102e4816102d1565b81146102ef57600080fd5b50565b600081359050610301816102db565b92915050565b60006020828403121561031d5761031c6102cc565b5b600061032b848285016102f2565b91505092915050565b61033d816102d1565b82525050565b600073ffffffffffffffffffffffffffffffffffffffff82169050919050565b600061036e82610343565b9050919050565b61037e81610363565b82525050565b60006080820190506103996000830187610334565b6103a66020830186610375565b6103b36040830185610334565b6103c06060830184610334565b95945050505050565b600081519050919050565b600082825260208201905092915050565b6000819050602082019050919050565b6103fe816102d1565b82525050565b61040d81610363565b82525050565b60808201600082015161042960008501826103f5565b50602082015161043c6020850182610404565b50604082015161044f60408501826103f5565b50606082015161046260608501826103f5565b50505050565b60006104748383610413565b60808301905092915050565b6000602082019050919050565b6000610498826103c9565b6104a281856103d4565b93506104ad836103e5565b8060005b838110156104de5781516104c58882610468565b97506104d083610480565b9250506001810190506104b1565b5085935050505092915050565b60006020820190508181036000830152610505818461048d565b905092915050565b7f4e487b7100000000000000000000000000000000000000000000000000000000600052601160045260246000fd5b6000610547826102d1565b91507fffffffffffffffffffffffffffffffffffffffffffffffffffffffffffffffff82036105795761057861050d565b5b60018201905091905056fea26469706673582212201fd6ac80da1e8bfdace802928be27f5eb9274d252edea9de31ea96c081b6fbd564736f6c63430008110033",
  "linkReferences": {},
  "deployedLinkReferences": {}
}